:100000000C942A000C9434000C9434000C94FB00E3
:100010000C9434000C9434000C9434000C94340090
:100020000C9434000C9434000C9434000C94340080
:100030000C9434000C9434000C9434000C94340070
:100040000C9434000C9434000C9434000C94340060
:100050000C94340011241FBECFE5D8E0DEBFCDBF25
:100060000E94F6000C941F010C9400004423D1F16F
:10007000413009F06EC0813091F028F08230D9F023
:10008000833029F12FC09AB321E030E0062E02C060
:10009000220F331F0A94E2F7292B2ABB23C097B300
:1000A00021E030E0062E02C0220F331F0A94E2F74F
:1000B000292B27BB17C094B321E030E0062E02C0E5
:1000C000220F331F0A94E2F7292B24BB0BC091B3F4
:1000D00021E030E0062E02C0220F331F0A94E2F71F
:1000E000292B21BB813091F028F08230D9F0833068
:1000F00029F108952AB381E090E002C0880F991F8A
:100100006A95E2F7809582238ABB089527B381E040
:1001100090E002C0880F991F6A95E2F780958223CC
:1001200087BB089524B381E090E002C0880F991F37
:100130006A95E2F78095822384BB089521B381E01C
:1001400090E002C0880F991F6A95E2F7809582239C
:1001500081BB0895813089F028F08230C9F0833066
:1001600011F108952BB381E090E002C0880F991F30
:100170006A95E2F782278BBB089528B381E090E06F
:1001800002C0880F991F6A95E2F7822788BB0895FD
:1001900025B381E090E002C0880F991F6A95E2F7CD
:1001A000822785BB089522B381E090E002C0880FCA
:1001B000991F6A95E2F7822782BB08958FB78068FE
:1001C0008FBF08950E94DE008BB780628BBF84B71B
:1001D000806484BF089541E062E082E00E943600BE
:1001E000089562E082E00E94AA0008950E94EB0058
:1001F0000E94E200FFCF1F920F920FB60F921124C0
:100200002F933F934F935F936F937F938F939F931E
:10021000AF93BF93EF93FF930E94F100FF91EF9193
:10022000BF91AF919F918F917F916F915F914F910E
:100230003F912F910F900FBE0F901F901895F8943B
:02024000FFCFEE
:00000001FF
